:100000000C9477000C9474020C9428020C947402E3
:100010000C9474020C9474020C9474020C94740288
:100020000C9474020C9474020C9474020C94740278
:100030000C9474020C9474020C9474020C94740268
:100040000C9474020C9474020C9474020C94740258
:100050000C9474020C9474020C9474020C94740248
:100060000C9474020C9474020C9474020C94740238
:100070000C9474020C9474020C9474020C94740228
:100080000C9474020C9474020C9474020C94740218
:100090000C9474020C9474020C9474020C94740208
:1000A0000C9474020C94F0010C9474020C9474027D
:1000B0000C9474020C9474020C9474020C947402E8
:1000C0000C9474020C9474020C9474020C947402D8
:1000D0000C9474020C9474020C9474020C947402C8
:1000E0000C9474020C9474024000400180001124AE
:1000F0001FBECFEFCDBFDFE7DEBFE8EEF0E040E0B0
:1001000019C0B791A79137912791079107FD0EC0AC
:1001100097918791EF01F92FE82F0BBF07900D9270
:10012000A217B307D9F7FE011BBE04C01D92A21788
:10013000B307E1F7ED3EF40721F70E9446010C9466
:06014000A100F894FFCFBE
:100146000F931F93CF93DF930E948D0140E054E0FD
:10015600FA01108220E234E080E2F901808380E433
:1001660094E0FC011082C0E6D4E01882A0E8B4E076
:100176001C9200EA14E0F8011082FA011482F901D7
:100186001482FC0114821C8214961C921497F801A6
:100196001482FA01108A118A128A138A148A158A1D
:1001A600168A178AF901108A118A128A138A148A02
:1001B600158A168A178AFC01108A118A128A138AEE
:1001C600148A158A168A68E0678B188A198A1A8A29
:1001D6001B8A1C8A1D8A1E8A1F8A50961C9250975B
:1001E60051961C92519752961C92529753961C9276
:1001F600539754961C92549755961C92559756961B
:100206001C92569757961C925797F801108A118A96
:10021600128A138A148A158A168A178AFA0113868D
:10022600168615861486F901138616861586148693
:10023600FC0113861686158614861B861E861D8669
:100246001C861B961C921B971E961C921E971D962B
:100256001C921D971C961C92F8011386168615860D
:100266001486E0EEF5E01186118210821482168261
:10027600178210861582128213821286DF91CF9121
:060286001F910F91089585
:10028C000E943702E0E4F4E080E4808384811482ED
:10029C00C0E0D0E000E414E06894772476F80F2EE8
:1002AC00F0E3EF2EFBE0FF2EF02D0F2E88248A9426
:1002BC00F0EC9F2EF02DAA24AA946894BB24B7F8D6
:1002CC00CC24CA946894DD24D6F80E9418028823A2
:1002DC00E1F32196F8017782C330D10531F4F701AF
:1002EC00C486D586C0E0D0E00DC0C230D10521F463
:1002FC00F701A486B58606C0C130D10519F4F70103
:0E030C00848695860E9418028111FCCFDECFF8
:10031A00E0E9F4E0808188608193E83984E0F807B5
:10032A00C9F7E0EBF4E0808188608193E83B84E0E0
:10033A00F807C9F7E0E1F4E0808188608193E83149
:10034A0084E0F807C9F7E0E3F4E0808188608193EC
:10035A00E83384E0F807C9F7E0E5F4E080818860D3
:10036A008193E83584E0F807C9F7E0E7F4E0808193
:0E037A0088608193E83784E0F807C9F708959A
:1003880040E068ED88E790E00E946F0240E068ED89
:100398008CE790E00E946F024BE068ED81E690E008
:1003A8000E946F0242E068ED80E690E00E946F02D2
:1003B80040E068ED83E690E00E946F0244E268ED59
:1003C80088E690E00E946F0240E068ED82E690E0E7
:0803D8000E946F0280E008950D
:1003E0001F920F920FB60F9211248F9381E080938A
:1003F000360B809100408F5F809300408F910F906B
:080400000FBE0F901F9018952C
:10040800E0E3FBE08FE79FE78487958712861386F2
:1004180087E181831086148281E0858316821186A4
:0804280083E0808380E0089569
:100430008091480490E08058910942F48CEC90E05F
:100440000197F1F700C0000081E0089580E0089571
:100450001F920F920FB60F9211248F9381E0809319
:0E0460008A008F910F900FBE0F901F9018957D
:10046E000E94A3000E9453020E9467020E945F0234
:0E047E000E94C4010E9446020E9404020895DA
:10048C0040E068ED80E191E00E946F02E0E1F1E074
:0A049C0012821382789480E0089524
:1004A60040E068ED80E890E00E946F02E0E8F0E04E
:0804B6001186108680E0089514
:1004BE0040E068ED80E590E00E946F0280E00895D4
:1004CE0040E068ED80E091E00E946F0280E00895C8
:0A04DE001BBEFC0164BF40830895BB
:0404E8000C94000070
:02000004008278
:090000000000000000C000000037
:00000001FF
