:100000000C9474000C94B1000C94B1000C94B100E9
:100010000C94B1000C94B1000C94B1000C94B1009C
:100020000C94B1000C94B1000C94B1000C94B1008C
:100030000C94B1000C94B1000C94B1000C94B1007C
:100040000C94B1000C94B1000C94B1000C94B1006C
:100050000C94B1000C94B1000C94B1000C94B1005C
:100060000C94B1000C94B1000C94B1000C94B1004C
:100070000C94B1000C94B1000C94B1000C94B1003C
:100080000C94B1000C94B1000C94B1000C94B1002C
:100090000C94B1000C94B1000C94B1000C94B1001C
:1000A0000C94B1000C94B1000C94B1000C94B1000C
:1000B0000C94B1000C94B1000C94B1000C94B100FC
:1000C0000C94B1000C94B1000C94B1000C94B100EC
:1000D0000C94B1000C94B1000C94B1000C94B100DC
:1000E0000C94B1000C94B10011241FBECFEFCDBF12
:1000F000DFE7DEBF0E94AA000C947E00F894FFCFD9
:100100001092E605E0E0FAE081E0838381E18183FB
:100110008FEF86A387A38FE780A78DEB81A78FE062
:04012000808308953B
:1001240091E088ED84BF90936000E0E6F0E0838185
:1001340080FDFDCFE0E0F4E080818FEF80830895BF
:10014400E0E0FAE08081817080838CE0858308950B
:0E0154000E94A2000E9492000E948000FFCF35
:040162000C940000F9
:00000001FF
